{"abi":[{"type":"constructor","inputs":[{"name":"_router","type":"address","internalType":"address"}],"stateMutability":"nonpayable"},{"type":"receive","stateMutability":"payable"},{"type":"function","name":"executeTrade","inputs":[{"name":"tokenIn","type":"address","internalType":"address"},{"name":"tokenMid","type":"address","internalType":"address"},{"name":"amountIn","type":"uint256","internalType":"uint256"},{"name":"path1","type":"bytes","internalType":"bytes"},{"name":"path2","type":"bytes","internalType":"bytes"},{"name":"minProfit","type":"uint256","internalType":"uint256"}],"outputs":[{"name":"","type":"bool","internalType":"bool"}],"stateMutability":"nonpayable"},{"type":"function","name":"owner","inputs":[],"outputs":[{"name":"","type":"address","internalType":"address"}],"stateMutability":"view"},{"type":"function","name":"router","inputs":[],"outputs":[{"name":"","type":"address","internalType":"contract ISwapRouter"}],"stateMutability":"view"},{"type":"function","name":"withdraw","inputs":[{"name":"token","type":"address","internalType":"address"}],"outputs":[],"stateMutability":"nonpayable"},{"type":"function","name":"withdrawETH","inputs":[],"outputs":[],"stateMutability":"nonpayable"},{"type":"event","name":"TradeExecuted","inputs":[{"name":"tokenIn","type":"address","indexed":true,"internalType":"address"},{"name":"tokenOut","type":"address","indexed":true,"internalType":"address"},{"name":"amountIn","type":"uint256","indexed":false,"internalType":"uint256"},{"name":"amountOut","type":"uint256","indexed":false,"internalType":"uint256"},{"name":"profit","type":"uint256","indexed":false,"internalType":"uint256"},{"name":"timestamp","type":"uint256","indexed":false,"internalType":"uint256"}],"anonymous":false},{"type":"event","name":"TradeFailed","inputs":[{"name":"tokenIn","type":"address","indexed":true,"internalType":"address"},{"name":"tokenOut","type":"address","indexed":true,"internalType":"address"},{"name":"amountIn","type":"uint256","indexed":false,"internalType":"uint256"},{"name":"reason","type":"string","indexed":false,"internalType":"string"},{"name":"timestamp","type":"uint256","indexed":false,"internalType":"uint256"}],"anonymous":false}],"bytecode":{"object":"0x60a060405234801561000f575f5ffd5b50604051611de2380380611de283398181016040528101906100319190610108565b335f5f6101000a81548173ffffffffffffffffffffffffffffffffffffffff021916908373ffffffffffffffffffffffffffffffffffffffff1602179055508073ffffffffffffffffffffffffffffffffffffffff1660808173ffffffffffffffffffffffffffffffffffffffff168152505050610133565b5f5ffd5b5f73ffffffffffffffffffffffffffffffffffffffff82169050919050565b5f6100d7826100ae565b9050919050565b6100e7816100cd565b81146100f1575f5ffd5b50565b5f81519050610102816100de565b92915050565b5f6020828403121561011d5761011c6100aa565b5b5f61012a848285016100f4565b91505092915050565b608051611c7b6101675f395f818161028f01528181610310015281816105b1015281816106320152610fd30152611c7b5ff3fe60806040526004361061004d575f3560e01c8063462a080e1461005857806351cff8d9146100945780638da5cb5b146100bc578063e086e5ec146100e6578063f887ea40146100fc57610054565b3661005457005b5f5ffd5b348015610063575f5ffd5b5061007e600480360381019061007991906110f4565b610126565b60405161008b91906111d8565b60405180910390f35b34801561009f575f5ffd5b506100ba60048036038101906100b591906111f1565b610c64565b005b3480156100c7575f5ffd5b506100d0610e54565b6040516100dd919061122b565b60405180910390f35b3480156100f1575f5ffd5b506100fa610e78565b005b348015610107575f5ffd5b50610110610fd1565b60405161011d919061129f565b60405180910390f35b5f5f5f9054906101000a900473ffffffffffffffffffffffffffffffffffffffff1673ffffffffffffffffffffffffffffffffffffffff163373ffffffffffffffffffffffffffffffffffffffff16146101b5576040517f08c379a00000000000000000000000000000000000000000000000000000000081526004016101ac90611312565b60405180910390fd5b8873ffffffffffffffffffffffffffffffffffffffff166323b872dd33308a6040518463ffffffff1660e01b81526004016101f29392919061133f565b6020604051808303815f875af115801561020e573d5f5f3e3d5ffd5b505050506040513d601f19601f82011682018060405250810190610232919061139e565b610271576040517f08c379a000000000000000000000000000000000000000000000000000000000815260040161026890611413565b60405180910390fd5b8873ffffffffffffffffffffffffffffffffffffffff1663095ea7b37f0000000000000000000000000000000000000000000000000000000000000000896040518363ffffffff1660e01b81526004016102cc929190611431565b6020604051808303815f875af11580156102e8573d5f5f3e3d5ffd5b505050506040513d601f19601f8201168201806040525081019061030c919061139e565b505f7f000000000000000000000000000000000000000000000000000000000000000073ffffffffffffffffffffffffffffffffffffffff1663c04b8d596040518060a001604052808a8a8080601f0160208091040260200160405190810160405280939291908181526020018383808284375f81840152601f19601f8201169050808301925050505050505081526020013073ffffffffffffffffffffffffffffffffffffffff1681526020016078426103c79190611485565b81526020018b81526020015f8152506040518263ffffffff1660e01b81526004016103f291906115b9565b6020604051808303815f875af192505050801561042d57506040513d601f19601f8201168201806040525081019061042a91906115ed565b60015b61058f57610439611624565b806308c379a003610585575061044d6116a1565b806104585750610587565b8973ffffffffffffffffffffffffffffffffffffffff168b73ffffffffffffffffffffffffffffffffffffffff167f0c49a6ebefea6736b6f3760a3bf186496158c26519301fc6eddb02a9a2ad8c888b84426040516104b993929190611772565b60405180910390a38a73ffffffffffffffffffffffffffffffffffffffff1663a9059cbb338b6040518363ffffffff1660e01b81526004016104fc929190611431565b6020604051808303815f875af1158015610518573d5f5f3e3d5ffd5b505050506040513d601f19601f8201168201806040525081019061053c919061139e565b61057b576040517f08c379a0000000000000000000000000000000000000000000000000000000008152600401610572906117f8565b60405180910390fd5b5f92505050610c58565b505b3d5f5f3e3d5ffd5b809150508873ffffffffffffffffffffffffffffffffffffffff1663095ea7b37f0000000000000000000000000000000000000000000000000000000000000000836040518363ffffffff1660e01b81526004016105ee929190611431565b6020604051808303815f875af115801561060a573d5f5f3e3d5ffd5b505050506040513d601f19601f8201168201806040525081019061062e919061139e565b505f7f000000000000000000000000000000000000000000000000000000000000000073ffffffffffffffffffffffffffffffffffffffff1663c04b8d596040518060a0016040528089898080601f0160208091040260200160405190810160405280939291908181526020018383808284375f81840152601f19601f8201169050808301925050505050505081526020013073ffffffffffffffffffffffffffffffffffffffff1681526020016078426106e99190611485565b81526020018581526020015f8152506040518263ffffffff1660e01b815260040161071491906115b9565b6020604051808303815f875af192505050801561074f57506040513d601f19601f8201168201806040525081019061074c91906115ed565b60015b6108b25761075b611624565b806308c379a0036108a8575061076f6116a1565b8061077a57506108aa565b8a73ffffffffffffffffffffffffffffffffffffffff168c73ffffffffffffffffffffffffffffffffffffffff167f0c49a6ebefea6736b6f3760a3bf186496158c26519301fc6eddb02a9a2ad8c888c84426040516107db93929190611772565b60405180910390a38a73ffffffffffffffffffffffffffffffffffffffff1663a9059cbb33856040518363ffffffff1660e01b815260040161081e929190611431565b6020604051808303815f875af115801561083a573d5f5f3e3d5ffd5b505050506040513d601f19601f8201168201806040525081019061085e919061139e565b61089d576040517f08c379a000000000000000000000000000000000000000000000000000000000815260040161089490611860565b60405180910390fd5b5f9350505050610c58565b505b3d5f5f3e3d5ffd5b809150508881116109e8578973ffffffffffffffffffffffffffffffffffffffff168b73ffffffffffffffffffffffffffffffffffffffff167f0c49a6ebefea6736b6f3760a3bf186496158c26519301fc6eddb02a9a2ad8c888b4260405161091c9291906118c8565b60405180910390a38a73ffffffffffffffffffffffffffffffffffffffff1663a9059cbb33836040518363ffffffff1660e01b815260040161095f929190611431565b6020604051808303815f875af115801561097b573d5f5f3e3d5ffd5b505050506040513d601f19601f8201168201806040525081019061099f919061139e565b6109de576040517f08c379a00000000000000000000000000000000000000000000000000000000081526004016109d59061194c565b60405180910390fd5b5f92505050610c58565b5f89826109f5919061196a565b905084811015610b2b578a73ffffffffffffffffffffffffffffffffffffffff168c73ffffffffffffffffffffffffffffffffffffffff167f0c49a6ebefea6736b6f3760a3bf186496158c26519301fc6eddb02a9a2ad8c888c42604051610a5e9291906119e7565b60405180910390a38b73ffffffffffffffffffffffffffffffffffffffff1663a9059cbb33846040518363ffffffff1660e01b8152600401610aa1929190611431565b6020604051808303815f875af1158015610abd573d5f5f3e3d5ffd5b505050506040513d601f19601f82011682018060405250810190610ae1919061139e565b610b20576040517f08c379a0000000000000000000000000000000000000000000000000000000008152600401610b1790611a6b565b60405180910390fd5b5f9350505050610c58565b8b73ffffffffffffffffffffffffffffffffffffffff1663a9059cbb33846040518363ffffffff1660e01b8152600401610b66929190611431565b6020604051808303815f875af1158015610b82573d5f5f3e3d5ffd5b505050506040513d601f19601f82011682018060405250810190610ba6919061139e565b610be5576040517f08c379a0000000000000000000000000000000000000000000000000000000008152600401610bdc90611ad3565b60405180910390fd5b8a73ffffffffffffffffffffffffffffffffffffffff168c73ffffffffffffffffffffffffffffffffffffffff167ff6afefc8f9e391fc2606fcc41f4b18431b3b44355cd7d41ada81ef26d70dbd558c858542604051610c489493929190611af1565b60405180910390a3600193505050505b98975050505050505050565b5f5f9054906101000a900473ffffffffffffffffffffffffffffffffffffffff1673ffffffffffffffffffffffffffffffffffffffff163373ffffffffffffffffffffffffffffffffffffffff1614610cf2576040517f08c379a0000000000000000000000000000000000000000000000000000000008152600401610ce990611312565b60405180910390fd5b5f8173ffffffffffffffffffffffffffffffffffffffff166370a08231306040518263ffffffff1660e01b8152600401610d2c919061122b565b602060405180830381865afa158015610d47573d5f5f3e3d5ffd5b505050506040513d601f19601f82011682018060405250810190610d6b91906115ed565b90505f811115610e50578173ffffffffffffffffffffffffffffffffffffffff1663a9059cbb5f5f9054906101000a900473ffffffffffffffffffffffffffffffffffffffff16836040518363ffffffff1660e01b8152600401610dd0929190611431565b6020604051808303815f875af1158015610dec573d5f5f3e3d5ffd5b505050506040513d601f19601f82011682018060405250810190610e10919061139e565b610e4f576040517f08c379a0000000000000000000000000000000000000000000000000000000008152600401610e4690611b7e565b60405180910390fd5b5b5050565b5f5f9054906101000a900473ffffffffffffffffffffffffffffffffffffffff1681565b5f5f9054906101000a900473ffffffffffffffffffffffffffffffffffffffff1673ffffffffffffffffffffffffffffffffffffffff163373ffffffffffffffffffffffffffffffffffffffff1614610f06576040517f08c379a0000000000000000000000000000000000000000000000000000000008152600401610efd90611312565b60405180910390fd5b5f5f5f9054906101000a900473ffffffffffffffffffffffffffffffffffffffff1673ffffffffffffffffffffffffffffffffffffffff1647604051610f4b90611bc9565b5f6040518083038185875af1925050503d805f8114610f85576040519150601f19603f3d011682016040523d82523d5f602084013e610f8a565b606091505b5050905080610fce576040517f08c379a0000000000000000000000000000000000000000000000000000000008152600401610fc590611c27565b60405180910390fd5b50565b7f000000000000000000000000000000000000000000000000000000000000000081565b5f604051905090565b5f5ffd5b5f5ffd5b5f73ffffffffffffffffffffffffffffffffffffffff82169050919050565b5f61102f82611006565b9050919050565b61103f81611025565b8114611049575f5ffd5b50565b5f8135905061105a81611036565b92915050565b5f819050919050565b61107281611060565b811461107c575f5ffd5b50565b5f8135905061108d81611069565b92915050565b5f5ffd5b5f5ffd5b5f5ffd5b5f5f83601f8401126110b4576110b3611093565b5b8235905067ffffffffffffffff8111156110d1576110d0611097565b5b6020830191508360018202830111156110ed576110ec61109b565b5b9250929050565b5f5f5f5f5f5f5f5f60c0898b0312156111105761110f610ffe565b5b5f61111d8b828c0161104c565b985050602061112e8b828c0161104c565b975050604061113f8b828c0161107f565b965050606089013567ffffffffffffffff8111156111605761115f611002565b5b61116c8b828c0161109f565b9550955050608089013567ffffffffffffffff81111561118f5761118e611002565b5b61119b8b828c0161109f565b935093505060a06111ae8b828c0161107f565b9150509295985092959890939650565b5f8115159050919050565b6111d2816111be565b82525050565b5f6020820190506111eb5f8301846111c9565b92915050565b5f6020828403121561120657611205610ffe565b5b5f6112138482850161104c565b91505092915050565b61122581611025565b82525050565b5f60208201905061123e5f83018461121c565b92915050565b5f819050919050565b5f61126761126261125d84611006565b611244565b611006565b9050919050565b5f6112788261124d565b9050919050565b5f6112898261126e565b9050919050565b6112998161127f565b82525050565b5f6020820190506112b25f830184611290565b92915050565b5f82825260208201905092915050565b7f4e6f74206f776e657200000000000000000000000000000000000000000000005f82015250565b5f6112fc6009836112b8565b9150611307826112c8565b602082019050919050565b5f6020820190508181035f830152611329816112f0565b9050919050565b61133981611060565b82525050565b5f6060820190506113525f83018661121c565b61135f602083018561121c565b61136c6040830184611330565b949350505050565b61137d816111be565b8114611387575f5ffd5b50565b5f8151905061139881611374565b92915050565b5f602082840312156113b3576113b2610ffe565b5b5f6113c08482850161138a565b91505092915050565b7f5472616e7366657246726f6d206661696c6564000000000000000000000000005f82015250565b5f6113fd6013836112b8565b9150611408826113c9565b602082019050919050565b5f6020820190508181035f83015261142a816113f1565b9050919050565b5f6040820190506114445f83018561121c565b6114516020830184611330565b9392505050565b7f4e487b71000000000000000000000000000000000000000000000000000000005f52601160045260245ffd5b5f61148f82611060565b915061149a83611060565b92508282019050808211156114b2576114b1611458565b5b92915050565b5f81519050919050565b5f82825260208201905092915050565b8281835e5f83830152505050565b5f601f19601f8301169050919050565b5f6114fa826114b8565b61150481856114c2565b93506115148185602086016114d2565b61151d816114e0565b840191505092915050565b61153181611025565b82525050565b61154081611060565b82525050565b5f60a083015f8301518482035f86015261156082826114f0565b91505060208301516115756020860182611528565b5060408301516115886040860182611537565b50606083015161159b6060860182611537565b5060808301516115ae6080860182611537565b508091505092915050565b5f6020820190508181035f8301526115d18184611546565b905092915050565b5f815190506115e781611069565b92915050565b5f6020828403121561160257611601610ffe565b5b5f61160f848285016115d9565b91505092915050565b5f8160e01c9050919050565b5f60033d11156116405760045f5f3e61163d5f51611618565b90505b90565b7f4e487b71000000000000000000000000000000000000000000000000000000005f52604160045260245ffd5b611679826114e0565b810181811067ffffffffffffffff8211171561169857611697611643565b5b80604052505050565b5f60443d1061172d576116b2610ff5565b60043d036004823e80513d602482011167ffffffffffffffff821117156116da57505061172d565b808201805167ffffffffffffffff8111156116f8575050505061172d565b80602083010160043d03850181111561171557505050505061172d565b61172482602001850186611670565b82955050505050505b90565b5f81519050919050565b5f61174482611730565b61174e81856112b8565b935061175e8185602086016114d2565b611767816114e0565b840191505092915050565b5f6060820190506117855f830186611330565b8181036020830152611797818561173a565b90506117a66040830184611330565b949350505050565b7f526566756e64206661696c6564000000000000000000000000000000000000005f82015250565b5f6117e2600d836112b8565b91506117ed826117ae565b602082019050919050565b5f6020820190508181035f83015261180f816117d6565b9050919050565b7f526566756e64206d6964206661696c65640000000000000000000000000000005f82015250565b5f61184a6011836112b8565b915061185582611816565b602082019050919050565b5f6020820190508181035f8301526118778161183e565b9050919050565b7f4e6f742070726f66697461626c650000000000000000000000000000000000005f82015250565b5f6118b2600e836112b8565b91506118bd8261187e565b602082019050919050565b5f6060820190506118db5f830185611330565b81810360208301526118ec816118a6565b90506118fb6040830184611330565b9392505050565b7f52657475726e206661696c6564000000000000000000000000000000000000005f82015250565b5f611936600d836112b8565b915061194182611902565b602082019050919050565b5f6020820190508181035f8301526119638161192a565b9050919050565b5f61197482611060565b915061197f83611060565b925082820390508181111561199757611996611458565b5b92915050565b7f50726f6669742062656c6f77206d696e000000000000000000000000000000005f82015250565b5f6119d16010836112b8565b91506119dc8261199d565b602082019050919050565b5f6060820190506119fa5f830185611330565b8181036020830152611a0b816119c5565b9050611a1a6040830184611330565b9392505050565b7f52657475726e2062656c6f77206d696e206661696c65640000000000000000005f82015250565b5f611a556017836112b8565b9150611a6082611a21565b602082019050919050565b5f6020820190508181035f830152611a8281611a49565b9050919050565b7f5061796f7574206661696c6564000000000000000000000000000000000000005f82015250565b5f611abd600d836112b8565b9150611ac882611a89565b602082019050919050565b5f6020820190508181035f830152611aea81611ab1565b9050919050565b5f608082019050611b045f830187611330565b611b116020830186611330565b611b1e6040830185611330565b611b2b6060830184611330565b95945050505050565b7f5769746864726177206661696c656400000000000000000000000000000000005f82015250565b5f611b68600f836112b8565b9150611b7382611b34565b602082019050919050565b5f6020820190508181035f830152611b9581611b5c565b9050919050565b5f81905092915050565b50565b5f611bb45f83611b9c565b9150611bbf82611ba6565b5f82019050919050565b5f611bd382611ba9565b9150819050919050565b7f455448207472616e73666572206661696c6564000000000000000000000000005f82015250565b5f611c116013836112b8565b9150611c1c82611bdd565b602082019050919050565b5f6020820190508181035f830152611c3e81611c05565b905091905056fea26469706673582212207896171446e08270d838e5be21fd158a07834aceff152f720d502313561eb1ab64736f6c63430008210033","linkReferences":{}},"methodIdentifiers":{"executeTrade(address,address,uint256,bytes,bytes,uint256)":"462a080e","owner()":"8da5cb5b","router()":"f887ea40","withdraw(address)":"51cff8d9","withdrawETH()":"e086e5ec"},"id":0}