{"abi":[{"type":"constructor","inputs":[],"stateMutability":"nonpayable"},{"type":"receive","stateMutability":"payable"},{"type":"function","name":"FLASH_POOL","inputs":[],"outputs":[{"name":"","type":"address","internalType":"address"}],"stateMutability":"view"},{"type":"function","name":"ROUTER","inputs":[],"outputs":[{"name":"","type":"address","internalType":"contract ISwapRouter"}],"stateMutability":"view"},{"type":"function","name":"owner","inputs":[],"outputs":[{"name":"","type":"address","internalType":"address"}],"stateMutability":"view"},{"type":"function","name":"startArbitrage","inputs":[{"name":"tokenIn","type":"address","internalType":"address"},{"name":"amountIn","type":"uint256","internalType":"uint256"},{"name":"path1","type":"bytes","internalType":"bytes"},{"name":"path2","type":"bytes","internalType":"bytes"},{"name":"minProfit","type":"uint256","internalType":"uint256"},{"name":"flashFee","type":"uint24","internalType":"uint24"}],"outputs":[],"stateMutability":"nonpayable"},{"type":"function","name":"uniswapV3FlashCallback","inputs":[{"name":"fee0","type":"uint256","internalType":"uint256"},{"name":"fee1","type":"uint256","internalType":"uint256"},{"name":"data","type":"bytes","internalType":"bytes"}],"outputs":[],"stateMutability":"nonpayable"},{"type":"function","name":"withdraw","inputs":[{"name":"token","type":"address","internalType":"address"}],"outputs":[],"stateMutability":"nonpayable"},{"type":"function","name":"withdrawETH","inputs":[],"outputs":[],"stateMutability":"nonpayable"}],"bytecode":{"object":"0x6080604052348015600e575f5ffd5b50335f5f6101000a81548173ffffffffffffffffffffffffffffffffffffffff021916908373ffffffffffffffffffffffffffffffffffffffff16021790555061187f8061005b5f395ff3fe608060405260043610610073575f3560e01c80638da5cb5b1161004d5780638da5cb5b146100f8578063df4d127d14610122578063e086e5ec1461014c578063e9cbafb0146101625761007a565b806332fe7b261461007e57806351cff8d9146100a85780637604b6be146100d05761007a565b3661007a57005b5f5ffd5b348015610089575f5ffd5b5061009261018a565b60405161009f9190610cab565b60405180910390f35b3480156100b3575f5ffd5b506100ce60048036038101906100c99190610d10565b6101a2565b005b3480156100db575f5ffd5b506100f660048036038101906100f19190610e07565b6103d0565b005b348015610103575f5ffd5b5061010c6105d6565b6040516101199190610ee0565b60405180910390f35b34801561012d575f5ffd5b506101366105fa565b6040516101439190610ee0565b60405180910390f35b348015610157575f5ffd5b50610160610612565b005b34801561016d575f5ffd5b5061018860048036038101906101839190610ef9565b610706565b005b732626664c2603336e57b271c5c0b26f421741e48181565b5f5f9054906101000a900473ffffffffffffffffffffffffffffffffffffffff1673ffffffffffffffffffffffffffffffffffffffff163373ffffffffffffffffffffffffffffffffffffffff1614610230576040517f08c379a000000000000000000000000000000000000000000000000000000000815260040161022790610fc4565b60405180910390fd5b5f8173ffffffffffffffffffffffffffffffffffffffff166370a08231306040518263ffffffff1660e01b815260040161026a9190610ee0565b602060405180830381865afa158015610285573d5f5f3e3d5ffd5b505050506040513d601f19601f820116820180604052508101906102a99190610ff6565b90505f81116102ed576040517f08c379a00000000000000000000000000000000000000000000000000000000081526004016102e49061106b565b60405180910390fd5b5f8273ffffffffffffffffffffffffffffffffffffffff1663a9059cbb5f5f9054906101000a900473ffffffffffffffffffffffffffffffffffffffff16846040518363ffffffff1660e01b8152600401610349929190611098565b6020604051808303815f875af1158015610365573d5f5f3e3d5ffd5b505050506040513d601f19601f8201168201806040525081019061038991906110f4565b9050806103cb576040517f08c379a00000000000000000000000000000000000000000000000000000000081526004016103c290611169565b60405180910390fd5b505050565b5f5f9054906101000a900473ffffffffffffffffffffffffffffffffffffffff1673ffffffffffffffffffffffffffffffffffffffff163373ffffffffffffffffffffffffffffffffffffffff161461045e576040517f08c379a000000000000000000000000000000000000000000000000000000000815260040161045590610fc4565b60405180910390fd5b5f73d0b53d9277642d899df5c87a3966a349a798f22490505f8973ffffffffffffffffffffffffffffffffffffffff168273ffffffffffffffffffffffffffffffffffffffff16630dfe16816040518163ffffffff1660e01b8152600401602060405180830381865afa1580156104d7573d5f5f3e3d5ffd5b505050506040513d601f19601f820116820180604052508101906104fb919061119b565b73ffffffffffffffffffffffffffffffffffffffff161490505f8a8a8a8a8a8a8a8a60405160200161053498979695949392919061122f565b60405160208183030381529060405290508273ffffffffffffffffffffffffffffffffffffffff1663490e6cbc308461056d575f61056f565b8c5b8561057a578d61057c565b5f5b856040518563ffffffff1660e01b815260040161059c94939291906112f0565b5f604051808303815f87803b1580156105b3575f5ffd5b505af11580156105c5573d5f5f3e3d5ffd5b505050505050505050505050505050565b5f5f9054906101000a900473ffffffffffffffffffffffffffffffffffffffff1681565b73d0b53d9277642d899df5c87a3966a349a798f22481565b5f5f9054906101000a900473ffffffffffffffffffffffffffffffffffffffff1673ffffffffffffffffffffffffffffffffffffffff163373ffffffffffffffffffffffffffffffffffffffff16146106a0576040517f08c379a000000000000000000000000000000000000000000000000000000000815260040161069790610fc4565b60405180910390fd5b5f5f9054906101000a900473ffffffffffffffffffffffffffffffffffffffff1673ffffffffffffffffffffffffffffffffffffffff166108fc4790811502906040515f60405180830381858888f19350505050158015610703573d5f5f3e3d5ffd5b50565b73d0b53d9277642d899df5c87a3966a349a798f22473ffffffffffffffffffffffffffffffffffffffff163373ffffffffffffffffffffffffffffffffffffffff1614610788576040517f08c379a000000000000000000000000000000000000000000000000000000000815260040161077f90611384565b60405180910390fd5b5f5f5f5f5f868681019061079c91906114f7565b50945094509450945094505f5f8a116107b557886107b7565b895b90508573ffffffffffffffffffffffffffffffffffffffff1663095ea7b3732626664c2603336e57b271c5c0b26f421741e481876040518363ffffffff1660e01b8152600401610808929190611098565b6020604051808303815f875af1158015610824573d5f5f3e3d5ffd5b505050506040513d601f19601f8201168201806040525081019061084891906110f4565b505f732626664c2603336e57b271c5c0b26f421741e48173ffffffffffffffffffffffffffffffffffffffff1663c04b8d596040518060a001604052808881526020013073ffffffffffffffffffffffffffffffffffffffff168152602001603c426108b491906115e5565b815260200189815260200160018152506040518263ffffffff1660e01b81526004016108e091906116f1565b6020604051808303815f875af11580156108fc573d5f5f3e3d5ffd5b505050506040513d601f19601f820116820180604052508101906109209190610ff6565b90505f61092c86610bd6565b90508073ffffffffffffffffffffffffffffffffffffffff1663095ea7b3732626664c2603336e57b271c5c0b26f421741e481846040518363ffffffff1660e01b815260040161097d929190611098565b6020604051808303815f875af1158015610999573d5f5f3e3d5ffd5b505050506040513d601f19601f820116820180604052508101906109bd91906110f4565b505f732626664c2603336e57b271c5c0b26f421741e48173ffffffffffffffffffffffffffffffffffffffff1663c04b8d596040518060a001604052808981526020013073ffffffffffffffffffffffffffffffffffffffff168152602001603c42610a2991906115e5565b815260200186815260200160018152506040518263ffffffff1660e01b8152600401610a5591906116f1565b6020604051808303815f875af1158015610a71573d5f5f3e3d5ffd5b505050506040513d601f19601f82011682018060405250810190610a959190610ff6565b90505f8489610aa491906115e5565b90508581610ab291906115e5565b8211610af3576040517f08c379a0000000000000000000000000000000000000000000000000000000008152600401610aea9061175b565b60405180910390fd5b5f8a73ffffffffffffffffffffffffffffffffffffffff1663a9059cbb73d0b53d9277642d899df5c87a3966a349a798f224846040518363ffffffff1660e01b8152600401610b43929190611098565b6020604051808303815f875af1158015610b5f573d5f5f3e3d5ffd5b505050506040513d601f19601f82011682018060405250810190610b8391906110f4565b905080610bc5576040517f08c379a0000000000000000000000000000000000000000000000000000000008152600401610bbc906117c3565b60405180910390fd5b505050505050505050505050505050565b5f601482511015610c1c576040517f08c379a0000000000000000000000000000000000000000000000000000000008152600401610c139061182b565b60405180910390fd5b601482510360208301015160601c9050919050565b5f73ffffffffffffffffffffffffffffffffffffffff82169050919050565b5f819050919050565b5f610c73610c6e610c6984610c31565b610c50565b610c31565b9050919050565b5f610c8482610c59565b9050919050565b5f610c9582610c7a565b9050919050565b610ca581610c8b565b82525050565b5f602082019050610cbe5f830184610c9c565b92915050565b5f604051905090565b5f5ffd5b5f5ffd5b5f610cdf82610c31565b9050919050565b610cef81610cd5565b8114610cf9575f5ffd5b50565b5f81359050610d0a81610ce6565b92915050565b5f60208284031215610d2557610d24610ccd565b5b5f610d3284828501610cfc565b91505092915050565b5f819050919050565b610d4d81610d3b565b8114610d57575f5ffd5b50565b5f81359050610d6881610d44565b92915050565b5f5ffd5b5f5ffd5b5f5ffd5b5f5f83601f840112610d8f57610d8e610d6e565b5b8235905067ffffffffffffffff811115610dac57610dab610d72565b5b602083019150836001820283011115610dc857610dc7610d76565b5b9250929050565b5f62ffffff82169050919050565b610de681610dcf565b8114610df0575f5ffd5b50565b5f81359050610e0181610ddd565b92915050565b5f5f5f5f5f5f5f5f60c0898b031215610e2357610e22610ccd565b5b5f610e308b828c01610cfc565b9850506020610e418b828c01610d5a565b975050604089013567ffffffffffffffff811115610e6257610e61610cd1565b5b610e6e8b828c01610d7a565b9650965050606089013567ffffffffffffffff811115610e9157610e90610cd1565b5b610e9d8b828c01610d7a565b94509450506080610eb08b828c01610d5a565b92505060a0610ec18b828c01610df3565b9150509295985092959890939650565b610eda81610cd5565b82525050565b5f602082019050610ef35f830184610ed1565b92915050565b5f5f5f5f60608587031215610f1157610f10610ccd565b5b5f610f1e87828801610d5a565b9450506020610f2f87828801610d5a565b935050604085013567ffffffffffffffff811115610f5057610f4f610cd1565b5b610f5c87828801610d7a565b925092505092959194509250565b5f82825260208201905092915050565b7f4e6f74206f776e657200000000000000000000000000000000000000000000005f82015250565b5f610fae600983610f6a565b9150610fb982610f7a565b602082019050919050565b5f6020820190508181035f830152610fdb81610fa2565b9050919050565b5f81519050610ff081610d44565b92915050565b5f6020828403121561100b5761100a610ccd565b5b5f61101884828501610fe2565b91505092915050565b7f4e6f7468696e6720746f207769746864726177000000000000000000000000005f82015250565b5f611055601383610f6a565b915061106082611021565b602082019050919050565b5f6020820190508181035f83015261108281611049565b9050919050565b61109281610d3b565b82525050565b5f6040820190506110ab5f830185610ed1565b6110b86020830184611089565b9392505050565b5f8115159050919050565b6110d3816110bf565b81146110dd575f5ffd5b50565b5f815190506110ee816110ca565b92915050565b5f6020828403121561110957611108610ccd565b5b5f611116848285016110e0565b91505092915050565b7f5769746864726177206661696c656400000000000000000000000000000000005f82015250565b5f611153600f83610f6a565b915061115e8261111f565b602082019050919050565b5f6020820190508181035f83015261118081611147565b9050919050565b5f8151905061119581610ce6565b92915050565b5f602082840312156111b0576111af610ccd565b5b5f6111bd84828501611187565b91505092915050565b5f82825260208201905092915050565b828183375f83830152505050565b5f601f19601f8301169050919050565b5f6111ff83856111c6565b935061120c8385846111d6565b611215836111e4565b840190509392505050565b61122981610dcf565b82525050565b5f60c0820190506112425f83018b610ed1565b61124f602083018a611089565b818103604083015261126281888a6111f4565b905081810360608301526112778186886111f4565b90506112866080830185611089565b61129360a0830184611220565b9998505050505050505050565b5f81519050919050565b8281835e5f83830152505050565b5f6112c2826112a0565b6112cc81856111c6565b93506112dc8185602086016112aa565b6112e5816111e4565b840191505092915050565b5f6080820190506113035f830187610ed1565b6113106020830186611089565b61131d6040830185611089565b818103606083015261132f81846112b8565b905095945050505050565b7f556e617574686f72697a65642063616c6c6261636b00000000000000000000005f82015250565b5f61136e601583610f6a565b91506113798261133a565b602082019050919050565b5f6020820190508181035f83015261139b81611362565b9050919050565b5f6113ac82610c31565b9050919050565b6113bc816113a2565b81146113c6575f5ffd5b50565b5f813590506113d7816113b3565b92915050565b5f5ffd5b7f4e487b71000000000000000000000000000000000000000000000000000000005f52604160045260245ffd5b611417826111e4565b810181811067ffffffffffffffff82111715611436576114356113e1565b5b80604052505050565b5f611448610cc4565b9050611454828261140e565b919050565b5f67ffffffffffffffff821115611473576114726113e1565b5b61147c826111e4565b9050602081019050919050565b5f61149b61149684611459565b61143f565b9050828152602081018484840111156114b7576114b66113dd565b5b6114c28482856111d6565b509392505050565b5f82601f8301126114de576114dd610d6e565b5b81356114ee848260208601611489565b91505092915050565b5f5f5f5f5f5f60c0878903121561151157611510610ccd565b5b5f61151e89828a016113c9565b965050602061152f89828a01610d5a565b955050604087013567ffffffffffffffff8111156115505761154f610cd1565b5b61155c89828a016114ca565b945050606087013567ffffffffffffffff81111561157d5761157c610cd1565b5b61158989828a016114ca565b935050608061159a89828a01610d5a565b92505060a06115ab89828a01610df3565b9150509295509295509295565b7f4e487b71000000000000000000000000000000000000000000000000000000005f52601160045260245ffd5b5f6115ef82610d3b565b91506115fa83610d3b565b9250828201905080821115611612576116116115b8565b5b92915050565b5f82825260208201905092915050565b5f611632826112a0565b61163c8185611618565b935061164c8185602086016112aa565b611655816111e4565b840191505092915050565b61166981610cd5565b82525050565b61167881610d3b565b82525050565b5f60a083015f8301518482035f8601526116988282611628565b91505060208301516116ad6020860182611660565b5060408301516116c0604086018261166f565b5060608301516116d3606086018261166f565b5060808301516116e6608086018261166f565b508091505092915050565b5f6020820190508181035f830152611709818461167e565b905092915050565b7f4e6f742070726f66697461626c650000000000000000000000000000000000005f82015250565b5f611745600e83610f6a565b915061175082611711565b602082019050919050565b5f6020820190508181035f83015261177281611739565b9050919050565b7f5265706179206661696c656400000000000000000000000000000000000000005f82015250565b5f6117ad600c83610f6a565b91506117b882611779565b602082019050919050565b5f6020820190508181035f8301526117da816117a1565b9050919050565b7f5061746820746f6f2073686f72740000000000000000000000000000000000005f82015250565b5f611815600e83610f6a565b9150611820826117e1565b602082019050919050565b5f6020820190508181035f83015261184281611809565b905091905056fea2646970667358221220de5e9db377876b878c65ceb6ec88693fdd393a91545b2b349b3e91f41b8fad7264736f6c63430008210033","linkReferences":{}},"methodIdentifiers":{"FLASH_POOL()":"df4d127d","ROUTER()":"32fe7b26","owner()":"8da5cb5b","startArbitrage(address,uint256,bytes,bytes,uint256,uint24)":"7604b6be","uniswapV3FlashCallback(uint256,uint256,bytes)":"e9cbafb0","withdraw(address)":"51cff8d9","withdrawETH()":"e086e5ec"},"id":0}